:100000000C9463000C948B000C948B000C941D05D5
:100010000C941D050C941D050C948B000C948B0006
:100020000C948B000C948B000C948B000C948B0024
:100030000C948B000C948B000C948B000C948B0014
:100040000C947B040C948B000C94EB040C94C5046E
:100050000C948B000C948B000C948B000C948B00F4
:100060000C948B000C948B0000000008000201002F
:100070000003040700000000000000000000000072
:1000800023002600290000000000240027002A0089
:1000900000000000250028002B00040404040404D0
:1000A0000404020202020202030303030303010227
:1000B00004081020408001020408102001020408F6
:1000C0001020E1057E0911241FBECFEFD8E0DEBF6E
:1000D000CDBF23E0A2ECB2E001C01D92A53DB20766
:1000E000E1F712E0A0E0B1E0EEEDF7E102C005902B
:1000F0000D92A23CB107D9F710E0C2E6D0E004C0EF
:100100002197FE010E94E109C136D107C9F70E947B
:10011000CF060C94E20B0C9400003FB7F89480914A
:10012000070390910803A0910903B0910A0326B533
:10013000A89B05C02F3F19F00196A11DB11D3FBF1F
:10014000BA2FA92F982F8827BC01CD01620F711DEE
:10015000811D911D42E0660F771F881F991F4A95E8
:10016000D1F708958F929F92AF92BF92CF92DF9274
:10017000EF92FF924B015C010E948D006B017C01AC
:100180000E948D006C197D098E099F09683E73409D
:1001900081059105A8F321E0821A9108A108B10810
:1001A00088EEC80E83E0D81EE11CF11C8114910476
:1001B000A104B10429F7FF90EF90DF90CF90BF909A
:1001C000AF909F908F9008950895AF92BF92CF9275
:1001D000DF92EF92FF920F931F93CF93DF936C0107
:1001E0007B018B01040F151FEB015E01AE18BF08E8
:1001F000C017D10759F06991D601ED91FC9101909A
:10020000F081E02DC6010995892B79F7C501DF91B1
:10021000CF911F910F91FF90EF90DF90CF90BF9003
:10022000AF900895FC01538D448D252F30E0842F2D
:1002300090E0821B930B541710F0CF96089501970E
:100240000895FC01918D828D981761F0A28DAE0FFB
:10025000BF2FB11D5D968C91928D9F5F9F73928F82
:1002600090E008958FEF9FEF08952FB7F894809155
:100270000B0390910C03A0910D03B0910E032FBFBF
:100280008093170390931803A0931903B0931A0354
:100290008FE093E00E94210197FF26C02FB7F894CA
:1002A00080910B0390910C03A0910D03B0910E036C
:1002B0002FBF40911703509118036091190370915B
:1002C0001A03841B950BA60BB70B40911303509197
:1002D0001403609115037091160384179507A60700
:1002E000B707B0F28FEF9FEF0895FC01918D828DDB
:1002F000981731F0828DE80FF11D858D90E00895FB
:100300008FEF9FEF0895FC01918D228D892F90E052
:10031000805C9F4F821B91098F73992708958FE00E
:1003200093E00E94830121E0892B09F420E0822FD1
:10033000089580E090E0892B29F00E948F018111BF
:100340000C9400000895FC01A48DA80FB92FB11DD5
:10035000A35ABF4F2C91848D90E001968F739927FB
:10036000848FA689B7892C93A089B1898C918370D9
:1003700080648C93938D848D981306C00288F389D2
:10038000E02D80818F7D80830895EF92FF920F93FF
:100390001F93CF93DF93EC0181E0888F9B8D8C8D31
:1003A00098131AC0E889F989808185FF15C09FB725
:1003B000F894EE89FF896083E889F98980818370E8
:1003C000806480839FBF81E090E0DF91CF911F9197
:1003D0000F91FF90EF900895F62E0B8D10E00F5FB8
:1003E0001F4F0F731127E02E8C8D8E110CC00FB68E
:1003F00007FCFACFE889F989808185FFF5CFCE0126
:100400000E94A301F1CFEB8DEC0FFD2FF11DE35AFC
:10041000FF4FF0829FB7F8940B8FEA89FB898081A8
:100420008062CFCFCF93DF93EC01888D8823B9F022
:10043000AA89BB89E889F9898C9185FD03C08081EF
:1004400086FD0DC00FB607FCF7CF8C9185FFF2CF6C
:10045000808185FFEDCFCE010E94A301E9CFDF911E
:10046000CF9108952091040330910503281739078F
:1004700071F49091020380910303981741F0E09189
:100480000203F0E0EE53FD4F808190E008958FEF7E
:100490009FEF08950895EF92FF920F931F93CF93CC
:1004A000DF93DC015C96ED90FC905D97E114F10424
:1004B00079F481E090E013969C938E93129790E0EC
:1004C00080E0DF91CF911F910F91FF90EF90089501
:1004D0005196ED91FC91529750968C915097982F90
:1004E00090950FB75E962C915E97122F127021FD9A
:1004F0006095F8942081112319F1282B2083E701BE
:100500002197F1F728E0462F50E0308160FF1AC0B4
:10051000382B3083E7012197F1F7BA01759567957C
:10052000215089F7112381F08081892380830FBFB7
:100530005C968D919C910197F1F781E090E0C1CF9D
:100540002923DCCF3923E5CF9081892BEFCF209170
:100550000403309105032817390761F480910303E0
:100560002091020390E0805C9F4F821B91098F7362
:100570009927089590E080E0089520910403309138
:10058000050328173907B9F49091020380910303FA
:10059000981789F0E0910203F0E0EE53FD4F80815F
:1005A0002091020330E02F5F3F4F2F7333272093BA
:1005B000020390E008958FEF9FEF089590E080E0B0
:1005C0000895FB0101900020E9F73197AF01461B28
:1005D000570BDC01ED91FC910280F381E02D099431
:1005E0000F931F93CF93DF93EC010E94E1028C01E4
:1005F0006AE271E0CE010E94E102800F911FDF915B
:10060000CF911F910F9108950F931F93CF93DF9375
:10061000EC01FB014481558160817181E881F981A0
:100620000280F381E02D09958C016AE271E0CE0130
:100630000E94E102800F911FDF91CF911F910F91D6
:100640000895FC0180819181009711F00C94830A38
:100650000895AF92BF92CF92DF92EF92FF920F93E5
:100660001F93CF93DF93DC01CD90DC901197C114E1
:10067000D10439F01496CD91DC918C01760120974C
:1006800061F4DF91CF911F910F91FF90EF90DF9078
:10069000CF90BF90AF90089575015701BFEFAB1A8F
:1006A000BB0AF7018081082E000C990B0E949E095D
:1006B000892B91F72197CC0DDD1D8881082E000C28
:1006C000990B0E949E09892B29F0CE15DF0510F0A9
:1006D0002197F3CFAE014F5F5F4F4E195F09D801ED
:1006E00015965C934E931497CE14DF0420F4B70153
:1006F000C6010E94C90BD801ED91FC911197149687
:100700008D919C91E80FF91F1082BBCF0F931F931F
:10071000CF93DF938C01EB01FC01808191810097E5
:10072000E1F06881798161157105A9F042815381F9
:100730002C813D814217530770F00E94DB0B8C81A6
:100740009D81F801958384831D821C82DF91CF9166
:100750001F910F9108950E94830A88819981F80161
:10076000918380838A819B81938382838C819D8105
:1007700095838483198218821B821A82E5CF0F9396
:100780001F93CF93DF93EC0188819981009759F0F3
:100790002A813B812617370730F081E0DF91CF9126
:1007A0001F910F9108958B016F5F7F4F0E940C0B7B
:1007B000009759F0998388831B830A832C813D819C
:1007C000232B59F7FC011082E8CF80E0E7CFEF92AE
:1007D000FF920F931F93CF93DF936115710541F43F
:1007E00080E0DF91CF911F910F91FF90EF900895DE
:1007F00041155105B1F07B01EC010C811D81040F05
:10080000151FB8010E94BF03882351F32881398145
:100810008C819D81B701820F931F0E94DB0B1D838A
:100820000C8381E0DECFEF92FF920F931F93CF9363
:10083000DF93EC017B018A01BA010E94BF0328818A
:100840003981811114C02115310519F0C9010E94A7
:10085000830A198218821D821C821B821A82CE0191
:10086000DF91CF911F910F91FF90EF9008951D831D
:100870000C83B701C9010E94DB0BF1CF0F931F93CB
:10088000CF93DF9300D0CDB7DEB78C01FC0111828E
:100890001082138212821582148250E040E06CE2D2
:1008A00071E00E9413040E94350197FD0BC08983FB
:1008B0001A8241E050E0BE016F5F7F4FC8010E9485
:1008C000E703F1CFC8010F900F90DF91CF911F91F7
:1008D0000F910895FC0111821082138212821582F9
:1008E0001482FB0101900020E9F73197AF01461B0C
:1008F000570B0C9413041F920F920FB60F921124F2
:100900002F933F938F939F93AF93BF9380910B034C
:1009100090910C03A0910D03B0910E03309106034A
:1009200023E0230F2D3758F50196A11DB11D20930B
:10093000060380930B0390930C03A0930D03B093D5
:100940000E038091070390910803A0910903B091D1
:100950000A030196A11DB11D80930703909308031C
:10096000A0930903B0930A03BF91AF919F918F9118
:100970003F912F910F900FBE0F901F90189526E872
:10098000230F0296A11DB11DD2CF1F920F920FB659
:100990000F9211242F933F934F935F936F937F9305
:1009A0008F939F93AF93BF93EF93FF938FE093E069
:1009B0000E94A301FF91EF91BF91AF919F918F9101
:1009C0007F916F915F914F913F912F910F900FBE4B
:1009D0000F901F9018951F920F920FB60F9211242F
:1009E0002F938F939F93EF93FF93E0911F03F091C9
:1009F00020038081E0912503F091260382FD1BC036
:100A00009081809128038F5F8F7320912903821733
:100A100041F0E0912803F0E0E15FFC4F958F809377
:100A20002803FF91EF919F918F912F910F900FBE0F
:100A30000F901F9018958081F4CF1F920F920FB6E0
:100A40000F9211242F933F934F935F936F937F9354
:100A50008F939F93AF93BF93EF93FF93E091040322
:100A6000F0910503309749F0A685B7858585968D69
:100A700091FF14C09C918923A1F4FF91EF91BF9144
:100A8000AF919F918F917F916F915F914F913F9126
:100A90002F910F900FBE0F901F9018959C91892356
:100AA00061F7A389B4899C918589809589238C936A
:100AB000868997890197F1F7608D718DA685B78535
:100AC000558538E020E0CB010197F1F7822F90E0C7
:100AD00095958795282F4C91452309F02068315032
:100AE00091F7868D81FD20958091030390E001961A
:100AF0008F73992730910203381799F0A09103035F
:100B0000B0E0AE53BD4F2C9380930303828D938D41
:100B10000197F1F7A389B4898C919589892B8C93DE
:100B2000ACCF868D8160868FF1CF90E0FC01E859D3
:100B3000FF4F2491FC01E255FF4F3491FC01E65632
:100B4000FF4FE491EE23C9F0222339F0233001F165
:100B5000A8F4213019F1223029F1F0E0EE0FFF1F47
:100B6000E057FF4FA591B4918FB7F894EC916111C4
:100B700026C030953E233C938FBF08952730A9F0BF
:100B80002830C9F0243049F7809180008F7D03C060
:100B9000809180008F7780938000DFCF84B58F773E
:100BA00084BDDBCF84B58F7DFBCF8091B0008F7784
:100BB0008093B000D2CF8091B0008F7DF9CF3E2BD3
:100BC000DACF0F931F93CF93DF93109212031092FB
:100BD000110388EE93E0A0E0B0E0809313039093BC
:100BE0001403A0931503B09316032AE031E0309369
:100BF000100320930F0325EC30E030931C03209367
:100C00001B0324EC30E030931E0320931D0320ECE3
:100C100030E03093200320931F0321EC30E0309329
:100C200022032093210322EC30E03093240320930D
:100C3000230326EC30E03093260320932503109203
:100C400028031092290310922A0310922B0310926A
:100C5000B5031092B4038093B6039093B703A093A7
:100C6000B803B093B9038CE191E09093B303809300
:100C7000B2031092C9031092C8031092CB031092D2
:100C8000CA031092CD031092CC031092CF0310929E
:100C9000CE036091D0036E7F6D7F6093D003669525
:100CA000617081E068278AE00E94950548EB50E07A
:100CB000FA01649184EA90E0FC012491222399F0E6
:100CC00030E0220F331FF901EA57FF4FA591B4918D
:100CD000F901E057FF4F259134912FB7F8943C91DB
:100CE000632B6C932FBFFA0144914093C203FC0124
:100CF0008491E82FF0E0EE0FFF1FE057FF4F859142
:100D000094919093C4038093C30307EB10E0F80120
:100D10002491C3EAD0E0FE0184918823C9F090E0D9
:100D2000880F991FFC01EA57FF4FA591B491FC0170
:100D3000E057FF4F459154913FB7F8949C91822F13
:100D4000809598239C93FA019081892380833FBFEB
:100D50008091D00381FD04C061E089E00E94950587
:100D600089E08093BE03F80104910093BF03FE0164
:100D7000C491EC2FF0E0EE0FFF1FE458FF4F859178
:100D800094919093C1038093C0036CE271E08CEA6C
:100D900093E0DF91CF911F910F910C946A04CF9350
:100DA000DF93CDB7DEB768970FB6F894DEBF0FBEFE
:100DB000CDBF789484B5826084BD84B5816084BDE4
:100DC00085B5826085BD85B5816085BD80916E00E9
:100DD000816080936E00109281008091810082601A
:100DE0008093810080918100816080938100809157
:100DF00080008160809380008091B1008460809346
:100E0000B1008091B00081608093B00080917A0041
:100E1000846080937A0080917A00826080937A0067
:100E200080917A00816080937A0080917A00806856
:100E300080937A001092C1001092CD031092CC03DF
:100E40001092CB031092CA031092C9031092C803E8
:100E50008DE991E09093CF038093CE039091BE03F0
:100E6000963108F047C02DEB30E03093C903209352
:100E7000C8032BE931E03093CB032093CA032CE263
:100E800031E03093CD032093CC032091680084E0BF
:100E9000983048F031E09E3008F430E081E001C045
:100EA000880F3A95EAF7822B809368002DE630E0B0
:100EB000983050F02BE630E09E3030F02CE630E0F9
:100EC000963110F030E020E03093C6032093C50344
:100ED000292F30E0983008F00FC181E001C0880F61
:100EE0009A95EAF78093C7038091CE039091CF0340
:100EF0000197F1F78091CC039091CD03892B49F1B3
:100F0000E0910403F091050383E0E23BF80709F167
:100F1000309739F0A389B4899C918589809589237C
:100F20008C938091D0038E7F8093D0031092030323
:100F30001092020382EB93E09093050380930403E5
:100F4000E091C503F091C60380819091C703892B7E
:100F50008083E0911F03F091200382E08083E09181
:100F60001B03F0911C031082E0911D03F0911E03FE
:100F70008FEC808310922703E0912303F0912403E8
:100F800086E08083E0912103F091220380818061DB
:100F90008083E0912103F091220380818860808327
:100FA000E0912103F0912203808180688083E091A9
:100FB0002103F091220380818F7D808364E670E0BD
:100FC00080E090E00E94B2006DE271E08FE093E07B
:100FD0000E94F00264E471E08FE093E00E94F0026E
:100FE0006EE471E08FE093E00E94F00269E671E048
:100FF0008FE093E00E94F00280E0E82E80E0F82E7F
:101000008FE093E00E948301181619060CF031C19D
:101010008FE093E00E942101182F682F8FE093E06A
:101020000E94C5011A3019F01D3009F05BC11C8AFD
:101030001B8A1E8A1D8A188E1F8A6091AC037091CC
:10104000AD036115710541F04091B0035091B103BA
:10105000CE0143960E941304CE0143960E942903B9
:101060008F89988D892B09F43AC10B891C8960E915
:1010700071E0C8010E94D20B892B09F016C16CE205
:1010800071E0CE010D960E946A046CE271E0CE011F
:1010900007960E946A0462E971E08FE093E00E9483
:1010A000F00289899A89892B29F0ED85FE85808156
:1010B00081112FC08FE093E00E948301181619065A
:1010C00084F7CE0101960E943E04BE016F5F7F4F00
:1010D000CE010D960E948603CE0101960E94210347
:1010E000CE010D960E942903BE01635F7F4F8FE002
:1010F00093E00E940403D5CF9E3040F4285031097C
:1011000081E001C0880F2A95EAF7ECCE2E50310914
:10111000F7CF6EED71E08FE093E00E94F0028B85D7
:101120009C85892B29F0EF81F8858081811122C06F
:101130008FE093E00E9483011816190684F7CE0110
:1011400001960E943E04BE016F5F7F4FCE0107965D
:101150000E948603CE0101960E942103CE010796CC
:101160000E942903BE01695F7F4F8FE093E00E94D8
:101170000403D5CF6FEF71E082EB93E00E94F002A1
:1011800068EE73E080E090E00E94B20069E072E0F7
:1011900082EB93E00E94E10249895A896D857E8540
:1011A00082EB93E00E94E50061E172E082EB93E064
:1011B0000E94F00268EE73E080E090E00E94B200CE
:1011C000BE01695F7F4F82EB93E00E94040364E6F7
:1011D00070E080E090E00E94B2006AE182EB93E070
:1011E0000E944B026AE271E082EB93E00E94E1020E
:1011F00068EE73E080E090E00E94B20063E172E08C
:10120000CE0101960E946A0449895A896D857E85BE
:10121000CE0101960E94E70381110CC089819A8159
:10122000009711F00E94830A1A8219821E821D8281
:101230001C821B82BE016F5F7F4F8FE093E00E9494
:101240000403CE0101960E942103CE0107960E945D
:101250002103CE010D960E942103CE0143960E94E8
:10126000210350E040E06CE271E08CEA93E00E94E0
:10127000130482EB93E00E94A702181619064CF49F
:1012800082EB93E00E94BD02682F8FE093E00E9402
:10129000C501E114F10409F4B3CE0E948F01882343
:1012A00009F4AECE0E940000ABCE64E272E0C80149
:1012B0000E94D20B892B99F466E272E082EB93E0F4
:1012C0000E94F00268EE73E080E090E00E94B200BD
:1012D00068E372E08FE093E00E94F002BECF69E71E
:1012E00072E0F8CF19831A8241E050E0BE016F5FCF
:1012F0007F4F8CEA93E00E94E703BBCF8CEA93E038
:101300000E9421038CE191E09093B3038093B20398
:101310008091040390910503825B934071F4E09106
:10132000C503F091C60390818091C70380958923FE
:1013300080831092050310920403089591110C9478
:10134000A709803219F089508550C8F70895992768
:10135000882708952F923F924F925F926F927F92CB
:101360008F929F92AF92BF92CF92DF92EF92FF92B5
:101370000F931F93CF93DF93CDB7DEB7CA1BDB0B61
:101380000FB6F894DEBF0FBECDBF09942A88398806
:1013900048885F846E847D848C849B84AA84B9840D
:1013A000C884DF80EE80FD800C811B81AA81B98119
:1013B000CE0FD11D0FB6F894DEBF0FBECDBFED012D
:1013C0000895EE0FFF1F0590F491E02D09940F93FF
:1013D0001F93CF93DF938230910510F482E090E069
:1013E000E091D303F091D40330E020E0B0E0A0E03E
:1013F000309799F42115310509F44AC0281B390B9F
:1014000024303105D8F58A819B816115710589F1F8
:10141000FB0193838283FE0111C0408151810281CF
:10142000138148175907E0F04817590799F41097A6
:1014300061F012960C93129713961C933296CF017B
:10144000DF91CF911F910F9108950093D3031093D3
:10145000D403F4CF2115310551F04217530738F06A
:10146000A901DB019A01BD01DF01F801C1CFEF0144
:10147000F9CF9093D4038093D303CDCFFE01E20F35
:10148000F31F819391932250310939832883D7CF59
:101490002091D1033091D203232B41F420910201FA
:1014A000309103013093D2032093D10320910001A6
:1014B000309101012115310541F42DB73EB740911E
:1014C000040150910501241B350BE091D103F091EB
:1014D000D203E217F307A0F42E1B3F0B281739079E
:1014E00078F0AC014E5F5F4F2417350748F04E0F80
:1014F0005F1F5093D2034093D103819391939FCF69
:10150000F0E0E0E09CCFCF93DF930097E9F0FC019F
:10151000329713821282A091D303B091D403ED01CC
:1015200030E020E01097A1F420813181820F931FD9
:101530002091D1033091D2032817390709F061C0F7
:10154000F093D203E093D103DF91CF910895EA01A4
:10155000CE17DF07E8F54A815B819E0141155105F1
:10156000B1F7E901FB83EA8349915991C40FD51F73
:10157000EC17FD0761F4808191810296840F951F1D
:10158000E90199838883828193819B838A83F0E038
:10159000E0E012968D919C9113970097B9F52D91EB
:1015A0003C911197CD010296820F931F2091D10398
:1015B0003091D2032817390739F6309751F5109238
:1015C000D4031092D303B093D203A093D103BCCF22
:1015D000D383C28340815181840F951FC817D907D7
:1015E00061F44E5F5F4F88819981480F591F518385
:1015F00040838A819B81938382832115310509F081
:10160000B0CFF093D403E093D3039ECFFD01DC0170
:10161000C0CF13821282D7CFB0E0A0E0E2E1FBE0BE
:101620000C94AC098C01009751F4CB010E94E7099E
:101630008C01C801CDB7DEB7E0E10C94C809FC010C
:10164000E60FF71F9C0122503109E217F30708F457
:101650009DC0D901CD91DC911197C617D70798F09D
:10166000C530D10530F3CE0104978617970708F3EC
:10167000C61BD70B2297C193D1936D937C93CF0157
:101680000E94830AD6CF5B01AC1ABD0A4C018C0EB6
:101690009D1EA091D303B091D403512C412CF12C69
:1016A000E12C109731F58091D1039091D2038815E8
:1016B000990509F05CC04616570608F058C080919D
:1016C000000190910101009741F48DB79EB74091C0
:1016D000040150910501841B950BE817F90708F0E8
:1016E00055C0F093D203E093D103F9017183608375
:1016F000A0CF8D919C91119712966C901297139692
:101700007C901397A815B90559F56C0142E0C40EF9
:10171000D11CCA14DB0420F1AC014A195B09DA01BF
:101720001296159780F06282738251834083D901AB
:101730006D937C93E114F10471F0D7011396FC933F
:10174000EE93129776CF22968C0F9D1FF90191830D
:101750008083F301EFCFF093D403E093D30369CFF9
:101760004816590608F42C017D01D3019ACFCB010C
:101770000E94E7097C01009749F0AE01B8010E9480
:10178000C90BC8010E94830A870153CF10E000E013
:1017900050CFFB01DC0102C001900D92415050403E
:1017A000D8F70895FB01DC018D910190801901109B
:1017B000D9F3990B0895FB01DC0101900D920020F3
:1017C000E1F7089510E0C2E6D0E004C0FE010E94F7
:0E17D000E1092196C336D107C9F7F894FFCF7F
:1017DE000000D503800000000000C501E5001201E5
:1017EE001202830121017501000000004B02E50089
:1017FE00DE024A02A702BD0232020D0A0047534D15
:10180E00204D6F64756C6520496E697469616C69F1
:10181E007A656400436F6D6D616E64733A0054793E
:10182E0070652027732720746F2073656E642061A6
:10183E00206D65737361676500547970652027723A
:10184E002720746F20636F6E6669677572652072EC
:10185E006563656976696E67206D6573736167652B
:10186E0073000A456E7465722072656369706965EE
:10187E006E7427732070686F6E65206E756D62656D
:10188E00722028696E636C75646520636F756E7463
:10189E00727920636F64652C20652E672E2C202BA9
:1018AE0031323531323334353637293A2000456EF0
:1018BE0074657220746865206D6573736167652049
:1018CE007465787420746F2073656E643A200041DD
:1018DE00542B434D47463D310041542B434D475306
:1018EE003D22004D6573736167652073656E7420CC
:1018FE00746F2000720041542B434E4D493D322CE3
:10190E00322C302C302C3000436F6E666967757246
:10191E00656420746F2072656365697665206D65F8
:10192E007373616765732E20534D532077696C6C0A
:10193E002061707065617220696E20746865207414
:10194E0065726D696E616C2E00496E76616C6964AC
:10195E0020636F6D6D616E64212054797065202750
:10196E00732720746F2073656E642061206D65731C
:10197E0073616765206F722027722720746F207243
:10198E00656365697665206D657373616765732E32
:02199E00000047
:00000001FF
